{
  "_format": "hh-sol-artifact-1",
  "contractName": "Insurance",
  "sourceName": "contracts/Insurance.sol",
  "abi": [
    {
      "anonymous": false,
      "inputs": [
        {
          "indexed": true,
          "internalType": "uint256",
          "name": "id",
          "type": "uint256"
        },
        {
          "indexed": true,
          "internalType": "uint256",
          "name": "policyId",
          "type": "uint256"
        },
        {
          "indexed": true,
          "internalType": "address",
          "name": "claimant",
          "type": "address"
        }
      ],
      "name": "ClaimApproved",
      "type": "event"
    },
    {
      "anonymous": false,
      "inputs": [
        {
          "indexed": true,
          "internalType": "uint256",
          "name": "id",
          "type": "uint256"
        },
        {
          "indexed": true,
          "internalType": "uint256",
          "name": "policyId",
          "type": "uint256"
        },
        {
          "indexed": true,
          "internalType": "address",
          "name": "claimant",
          "type": "address"
        },
        {
          "indexed": false,
          "internalType": "string",
          "name": "reason",
          "type": "string"
        }
      ],
      "name": "ClaimFiled",
      "type": "event"
    },
    {
      "anonymous": false,
      "inputs": [
        {
          "indexed": true,
          "internalType": "uint256",
          "name": "id",
          "type": "uint256"
        },
        {
          "indexed": true,
          "internalType": "address",
          "name": "owner",
          "type": "address"
        },
        {
          "indexed": false,
          "internalType": "string",
          "name": "policyType",
          "type": "string"
        },
        {
          "indexed": false,
          "internalType": "uint256",
          "name": "premium",
          "type": "uint256"
        }
      ],
      "name": "PolicyPurchased",
      "type": "event"
    },
    {
      "inputs": [
        {
          "internalType": "uint256",
          "name": "claimId",
          "type": "uint256"
        }
      ],
      "name": "approveClaim",
      "outputs": [],
      "stateMutability": "nonpayable",
      "type": "function"
    },
    {
      "inputs": [
        {
          "internalType": "string",
          "name": "policyType",
          "type": "string"
        }
      ],
      "name": "buyPolicy",
      "outputs": [],
      "stateMutability": "payable",
      "type": "function"
    },
    {
      "inputs": [],
      "name": "claimCounter",
      "outputs": [
        {
          "internalType": "uint256",
          "name": "",
          "type": "uint256"
        }
      ],
      "stateMutability": "view",
      "type": "function"
    },
    {
      "inputs": [
        {
          "internalType": "uint256",
          "name": "",
          "type": "uint256"
        }
      ],
      "name": "claims",
      "outputs": [
        {
          "internalType": "uint256",
          "name": "id",
          "type": "uint256"
        },
        {
          "internalType": "uint256",
          "name": "policyId",
          "type": "uint256"
        },
        {
          "internalType": "address",
          "name": "claimant",
          "type": "address"
        },
        {
          "internalType": "string",
          "name": "reason",
          "type": "string"
        },
        {
          "internalType": "bool",
          "name": "isApproved",
          "type": "bool"
        }
      ],
      "stateMutability": "view",
      "type": "function"
    },
    {
      "inputs": [
        {
          "internalType": "uint256",
          "name": "policyId",
          "type": "uint256"
        },
        {
          "internalType": "string",
          "name": "reason",
          "type": "string"
        }
      ],
      "name": "fileClaim",
      "outputs": [],
      "stateMutability": "nonpayable",
      "type": "function"
    },
    {
      "inputs": [
        {
          "internalType": "uint256",
          "name": "",
          "type": "uint256"
        }
      ],
      "name": "policies",
      "outputs": [
        {
          "internalType": "uint256",
          "name": "id",
          "type": "uint256"
        },
        {
          "internalType": "address",
          "name": "owner",
          "type": "address"
        },
        {
          "internalType": "string",
          "name": "policyType",
          "type": "string"
        },
        {
          "internalType": "uint256",
          "name": "premium",
          "type": "uint256"
        },
        {
          "internalType": "bool",
          "name": "isActive",
          "type": "bool"
        }
      ],
      "stateMutability": "view",
      "type": "function"
    },
    {
      "inputs": [],
      "name": "policyCounter",
      "outputs": [
        {
          "internalType": "uint256",
          "name": "",
          "type": "uint256"
        }
      ],
      "stateMutability": "view",
      "type": "function"
    }
  ],
  "bytecode": "0x608060405234801561001057600080fd5b50611223806100206000396000f3fe6080604052600436106100705760003560e01c8063a888c2cd1161004e578063a888c2cd146100f2578063b871157614610133578063d3e894831461014f578063d52c1bea1461019057610070565b806346e30135146100755780634efa8f171461009e5780638a590412146100c9575b600080fd5b34801561008157600080fd5b5061009c600480360381019061009791906108e5565b6101bb565b005b3480156100aa57600080fd5b506100b3610322565b6040516100c09190610921565b60405180910390f35b3480156100d557600080fd5b506100f060048036038101906100eb9190610a82565b610328565b005b3480156100fe57600080fd5b50610119600480360381019061011491906108e5565b610524565b60405161012a959493929190610bb9565b60405180910390f35b61014d60048036038101906101489190610c13565b61060f565b005b34801561015b57600080fd5b50610176600480360381019061017191906108e5565b6107aa565b604051610187959493929190610c5c565b60405180910390f35b34801561019c57600080fd5b506101a5610895565b6040516101b29190610921565b60405180910390f35b600073ffffffffffffffffffffffffffffffffffffffff166001600083815260200190815260200160002060020160009054906101000a900473ffffffffffffffffffffffffffffffffffffffff1673ffffffffffffffffffffffffffffffffffffffff1603610260576040517f08c379a000000000000000000000000000000000000000000000000000000000815260040161025790610d02565b60405180910390fd5b600180600083815260200190815260200160002060040160006101000a81548160ff0219169083151502179055506001600082815260200190815260200160002060020160009054906101000a900473ffffffffffffffffffffffffffffffffffffffff1673ffffffffffffffffffffffffffffffffffffffff166001600083815260200190815260200160002060010154827f1fc82f3a90dd290838caa8cb6ac771f44ea2d2ceb27c530e6d101f977177283660405160405180910390a450565b60035481565b3373ffffffffffffffffffffffffffffffffffffffff1660008084815260200190815260200160002060010160009054906101000a900473ffffffffffffffffffffffffffffffffffffffff1673ffffffffffffffffffffffffffffffffffffffff16146103cb576040517f08c379a00000000000000000000000000000000000000000000000000000000081526004016103c290610d94565b60405180910390fd5b600360008154809291906103de90610de3565b91905055506040518060a0016040528060035481526020018381526020013373ffffffffffffffffffffffffffffffffffffffff16815260200182815260200160001515815250600160006003548152602001908152602001600020600082015181600001556020820151816001015560408201518160020160006101000a81548173ffffffffffffffffffffffffffffffffffffffff021916908373ffffffffffffffffffffffffffffffffffffffff16021790555060608201518160030190816104aa9190611037565b5060808201518160040160006101000a81548160ff0219169083151502179055509050503373ffffffffffffffffffffffffffffffffffffffff16826003547f127e303ba07000f79ca39c3c5efe4d2ca3bce573a9b3f83233756c1b30abb359846040516105189190611109565b60405180910390a45050565b60016020528060005260406000206000915090508060000154908060010154908060020160009054906101000a900473ffffffffffffffffffffffffffffffffffffffff169080600301805461057990610e5a565b80601f01602080910402602001604051908101604052809291908181526020018280546105a590610e5a565b80156105f25780601f106105c7576101008083540402835291602001916105f2565b820191906000526020600020905b8154815290600101906020018083116105d557829003601f168201915b5050505050908060040160009054906101000a900460ff16905085565b60003411610652576040517f08c379a00000000000000000000000000000000000000000000000000000000081526004016106499061119d565b60405180910390fd5b6002600081548092919061066590610de3565b91905055506040518060a0016040528060025481526020013373ffffffffffffffffffffffffffffffffffffffff1681526020018281526020013481526020016001151581525060008060025481526020019081526020016000206000820151816000015560208201518160010160006101000a81548173ffffffffffffffffffffffffffffffffffffffff021916908373ffffffffffffffffffffffffffffffffffffffff16021790555060408201518160020190816107269190611037565b506060820151816003015560808201518160040160006101000a81548160ff0219169083151502179055509050503373ffffffffffffffffffffffffffffffffffffffff166002547f42242dca1b9244398ea83e7a8f17a0b763666b747d5b4534138c8a0eb8a6a67e833460405161079f9291906111bd565b60405180910390a350565b60006020528060005260406000206000915090508060000154908060010160009054906101000a900473ffffffffffffffffffffffffffffffffffffffff16908060020180546107f990610e5a565b80601f016020809104026020016040519081016040528092919081815260200182805461082590610e5a565b80156108725780601f1061084757610100808354040283529160200191610872565b820191906000526020600020905b81548152906001019060200180831161085557829003601f168201915b5050505050908060030154908060040160009054906101000a900460ff16905085565b60025481565b6000604051905090565b600080fd5b600080fd5b6000819050919050565b6108c2816108af565b81146108cd57600080fd5b50565b6000813590506108df816108b9565b92915050565b6000602082840312156108fb576108fa6108a5565b5b6000610909848285016108d0565b91505092915050565b61091b816108af565b82525050565b60006020820190506109366000830184610912565b92915050565b600080fd5b600080fd5b6000601f19601f8301169050919050565b7f4e487b7100000000000000000000000000000000000000000000000000000000600052604160045260246000fd5b61098f82610946565b810181811067ffffffffffffffff821117156109ae576109ad610957565b5b80604052505050565b60006109c161089b565b90506109cd8282610986565b919050565b600067ffffffffffffffff8211156109ed576109ec610957565b5b6109f682610946565b9050602081019050919050565b82818337600083830152505050565b6000610a25610a20846109d2565b6109b7565b905082815260208101848484011115610a4157610a40610941565b5b610a4c848285610a03565b509392505050565b600082601f830112610a6957610a6861093c565b5b8135610a79848260208601610a12565b91505092915050565b60008060408385031215610a9957610a986108a5565b5b6000610aa7858286016108d0565b925050602083013567ffffffffffffffff811115610ac857610ac76108aa565b5b610ad485828601610a54565b9150509250929050565b600073ffffffffffffffffffffffffffffffffffffffff82169050919050565b6000610b0982610ade565b9050919050565b610b1981610afe565b82525050565b600081519050919050565b600082825260208201905092915050565b60005b83811015610b59578082015181840152602081019050610b3e565b60008484015250505050565b6000610b7082610b1f565b610b7a8185610b2a565b9350610b8a818560208601610b3b565b610b9381610946565b840191505092915050565b60008115159050919050565b610bb381610b9e565b82525050565b600060a082019050610bce6000830188610912565b610bdb6020830187610912565b610be86040830186610b10565b8181036060830152610bfa8185610b65565b9050610c096080830184610baa565b9695505050505050565b600060208284031215610c2957610c286108a5565b5b600082013567ffffffffffffffff811115610c4757610c466108aa565b5b610c5384828501610a54565b91505092915050565b600060a082019050610c716000830188610912565b610c7e6020830187610b10565b8181036040830152610c908186610b65565b9050610c9f6060830185610912565b610cac6080830184610baa565b9695505050505050565b7f436c61696d20646f6573206e6f74206578697374000000000000000000000000600082015250565b6000610cec601483610b2a565b9150610cf782610cb6565b602082019050919050565b60006020820190508181036000830152610d1b81610cdf565b9050919050565b7f4f6e6c792074686520706f6c696379206f776e65722063616e2066696c65206160008201527f20636c61696d0000000000000000000000000000000000000000000000000000602082015250565b6000610d7e602683610b2a565b9150610d8982610d22565b604082019050919050565b60006020820190508181036000830152610dad81610d71565b9050919050565b7f4e487b7100000000000000000000000000000000000000000000000000000000600052601160045260246000fd5b6000610dee826108af565b91507fffffffffffffffffffffffffffffffffffffffffffffffffffffffffffffffff8203610e2057610e1f610db4565b5b600182019050919050565b7f4e487b7100000000000000000000000000000000000000000000000000000000600052602260045260246000fd5b60006002820490506001821680610e7257607f821691505b602082108103610e8557610e84610e2b565b5b50919050565b60008190508160005260206000209050919050565b60006020601f8301049050919050565b600082821b905092915050565b600060088302610eed7fffffffffffffffffffffffffffffffffffffffffffffffffffffffffffffffff82610eb0565b610ef78683610eb0565b95508019841693508086168417925050509392505050565b6000819050919050565b6000610f34610f2f610f2a846108af565b610f0f565b6108af565b9050919050565b6000819050919050565b610f4e83610f19565b610f62610f5a82610f3b565b848454610ebd565b825550505050565b600090565b610f77610f6a565b610f82818484610f45565b505050565b5b81811015610fa657610f9b600082610f6f565b600181019050610f88565b5050565b601f821115610feb57610fbc81610e8b565b610fc584610ea0565b81016020851015610fd4578190505b610fe8610fe085610ea0565b830182610f87565b50505b505050565b600082821c905092915050565b600061100e60001984600802610ff0565b1980831691505092915050565b60006110278383610ffd565b9150826002028217905092915050565b61104082610b1f565b67ffffffffffffffff81111561105957611058610957565b5b6110638254610e5a565b61106e828285610faa565b600060209050601f8311600181146110a1576000841561108f578287015190505b611099858261101b565b865550611101565b601f1984166110af86610e8b565b60005b828110156110d7578489015182556001820191506020850194506020810190506110b2565b868310156110f457848901516110f0601f891682610ffd565b8355505b6001600288020188555050505b505050505050565b600060208201905081810360008301526111238184610b65565b905092915050565b7f5072656d69756d206d7573742062652067726561746572207468616e207a657260008201527f6f00000000000000000000000000000000000000000000000000000000000000602082015250565b6000611187602183610b2a565b91506111928261112b565b604082019050919050565b600060208201905081810360008301526111b68161117a565b9050919050565b600060408201905081810360008301526111d78185610b65565b90506111e66020830184610912565b939250505056fea26469706673582212205ecc1b6025f0f95eac74edb0988fec6d3df86f2fb476f63c2a8d2b54e8ecdf6164736f6c63430008110033",
  "linkReferences": {},
  "deployedLinkReferences": {}
}